:100000000C94BE0D0C94E60D0C94E60D0C94E60DCC
:100010000C94E60D0C94E60D0C94E60D0C94E60D94
:100020000C94E60D0C94E60D0C94E60D0C94E60D84
:100030000C94E60D0C94E60D0C94E80D0C94E60D72
:100040000C94E60D0C94E60D0C94E60D0C94E60D64
:100050000C94E60D05A84CCDB2D44EB93836A902A1
:100060000C50B9918688083CA6AAAA2ABE000000B6
:10007000803F1B0810210120F90A02060A090E0917
:100080000306060708030703070A0A0A0A0A0A0AF8
:100090000A0A0A0303060706090F0A0A0A0A0908D8
:1000A0000B0A02060A080F0C0C0A0C0A0B0A0A0CAF
:1000B0000E0B0C0A040804080905090908090A07B7
:1000C0000A0902030A020E090909090609070909B2
:1000D0000E0909080602060A0000000000000000E0
:1000E0000000000000000000000000000000000010
:1000F000000000000000000000000A09090A0A0DC3
:1001000007090C0B0B0E0E0C0C0A0D0F0F0A0A0937
:100110000C090D0C0C09090D0D0C0A090909090C33
:10012000080B0E0A0C0D090A09080907070A0A0A32
:100130000A0405030000000008050A08080907086A
:100140000802080906070000000B0B0D0A0C0C0C36
:100150000D0C0E0000000000000000000000000078
:10016000000000000000000000000000000000008F
:1001700000000000000000000000000000C0FF0DB3
:100180000080FF1B0000080000000E0000000400BB
:10019000000060000000700000002000000000442B
:1001A000000000881F0000F00700007C0200004CE7
:1001B00004000080E80100007F0000C02F0000C0A4
:1001C0004500000088000000380C0000F8380000EE
:1001D00018C3000030060100F0FF0F00C01004003B
:1001E00080610C00008E0F0000180E0000780000E7
:1001F00000F80100000804010010080300C08F018E
:1002000000008F010000C0000000C0000000603C42
:10021000000060FC0000300402002008040000E040
:100220000700008007000080070000BC1F0000FCE2
:1002300043000018870000B01B0100C063020000EB
:1002400080070000800F0000001B00000800000075
:100250000E00000004000000C07F0000E0FF070067
:10026000F0001E007000E000300080033000000C41
:1002700020000018800100180006001C0078001FF4
:1002800000C0FF0F0000FE0300800D0000001A00F8
:10029000000008000000FE01000020000000A00097
:1002A000000060030000002000000040000000800B
:1002B000000000F01F0000E03F000000040000000C
:1002C0000800000010000000004C00000058000072
:1002D00000700000000100000002000000040000A7
:1002E0000008000000100000002000000040000096
:1002F00000003000000070000000C0000000C001DD
:100300000000C0000000600000007000000030002D
:100310000000180000001C000000E01F0000E07F4B
:1003200000006080010060000600400008008000BE
:10033000100000033000000C300000F03F0000C04F
:100340001F0000000000000000000000030000008B
:100350000300000003000000FE7F0000FCFF00001F
:1003600000000000000000000000000000060F0078
:10037000000F1F0000032300000247000004860056
:1003800000080E0100100C0200601C0400801F0811
:1003900000001E100000080C00001C3800000CC0FB
:1003A00000000800010010040200200804004010B2
:1003B00008008051180000BE1900003C3E000000FB
:1003C0000C0000001E000000260000004600000097
:1003D000870000000301000003020000FE7F000010
:1003E000FCFF00000010000080C30000E087030055
:1003F00040040C008004100000092000001240009E
:100400000024800000C8C1010010FF010000FC00B2
:100410000000FE010000FE0F00002210000022403C
:100420000000448000008800010010010200600606
:10043000060080F9070000E207000001000000024A
:100440000000000480000008F0010010F803002004
:100450003C0000401E0000800E000000070000006D
:1004600006000000703C0000F0FD0000300A0100B2
:1004700020080400401008008020100000412000E7
:100480000046210000F87E0000E0780000C0C700B0
:1004900000C09F0300C0600C00808010000001219C
:1004A00000000242000004C6000030C60000E0FF69
:1004B0000000007F000080010C0000071C00000607
:1004C0003000000860020038C002002080030000F5
:1004D0000800000028000000D80000001001000003
:1004E0001004000030180000800800000011000017
:1004F00000220000004400000088000000100100FD
:100500000020020000301800004010000000110020
:1005100000003600000028000000200000000E004F
:1005200000001E000000060000000400000008BCDF
:100530000100107C0300200C000080080000000F68
:10054000000000E0030000F00F0000703000002009
:10055000C00000203C010040FC040040060900806F
:100560000C11000019230000E24F0000CCD1000064
:10057000902001006020000080730000003C00001B
:1005800000001E000080070000E0070000F80800DF
:100590000038100000F0200000C04F000000FC00F8
:1005A0000000C00F0000003C0000FE7F0000FCFFC8
:1005B000000008020100100402002008040040109E
:1005C00008008020100000B73000007C3F000020B1
:1005D0003C0000801F0000C0FF0000C0810300C07D
:1005E000000C00800010000001200000024000000C
:1005F0000480000010800000E0E00100E0FF070040
:10060000C0FF0F0080001000000120000002400029
:10061000000480000010800000E0C0010080FF01A5
:100620000000FC000080FF1F0000FF3F0000824030
:1006300000000481000008020100100402002008EC
:100640000400401008008000100000FF3F0000FE82
:100650007F000004010000080200001004000020D8
:10066000080000401000008000000000F0030000BF
:10067000F81F000038700000108000001000020019
:100680002000040040200800804118000086180067
:10069000001C3F000020FE0000F8FF0100F0FF03F7
:1006A00000000800000010000000200000004000D2
:1006B00000008000000000010000F8FF0100F0FFD2
:1006C0000300E0FF0700C0FF0F0000001000000063
:1006D0002000000040000000C00000F8FF0000F013
:1006E000FF0000E0FF0700C0FF0F0000C001000096
:1006F000C0000000C0000000E0010000600E00002B
:100700006078000060C0030040000E0080FF1F0002
:1007100000FF3F00000040000000800000000001DA
:100720000000000200000004000000080080FF1F1D
:100730000000FF3F00000E00000078000000C0072E
:100740000000003C000000E0030000000E0000007C
:100750000F000080030000E001000070000000189E
:10076000000000F0FF0300E0FF0700C0FF0F008063
:10077000FF1F0000030000001C00000060000000DC
:1007800080030000001C00000070000000800300D7
:1007900000001C0000FF3F0000FE7F0000C00F00B3
:1007A00000E07F0000E0C0010040000200400008BF
:1007B00000800010000001200000024000000840FE
:1007C000000070E00000C0FF0000007E0000C0FFDD
:1007D0000F0080FF1F0000810000000201000004E4
:1007E00002000008040000100800006018000080EB
:1007F0001F0000001E000000F0030000F81F0000B2
:10080000387000001080000010000200200004007A
:10081000400038008000D00000033001001C380286
:1008200000F03F0400801F0000F0FF0300E0FF071E
:100830000040200000804000000081000000020114
:100840000000040E000018FE0000E087030080078F
:100850000400000F0300003F0C000063300000C2E2
:100860004000000483000008060100100C02006034
:100870001804008063040000C20F0000000F000095
:10088000020000000400000008000000100000004A
:10089000E0FF0700C0FF0F00800000000001000023
:1008A000000200000004000000F87F0000F0FF01DB
:1008B00000000006000000080000001000000020FA
:1008C00000000040000000C00000F8FF0000F0FF42
:1008D000000020000000C0030000003F000000F006
:1008E000030000001F000000F0000000C001000035
:1008F000F00000007C0000001F00008007000000E6
:10090000010000007E000000FC07000000FE000067
:1009100000C0030000C0070000FE0000801F0000B0
:10092000003F000000F0070000007E000000C00152
:100930000000F00300E07F0000C00F000080001006
:100940000000033000000E380000701C0000C00FD3
:100950000000000E0000007E000000C703008003BE
:100960000E000001380000004000000400000018E4
:10097000000000F000000080070000001E000000E2
:10098000F01F0000C03F0000E0000000E000000099
:1009900070000000300000002000000040000C004B
:1009A00080001C0000012E0000024E0000048700A1
:1009B000008803010090030200E0010400C0010868
:1009C000008000100000FFFF0100FEFF0300040094
:1009D0000400080008003000000080010000000E44
:1009E0000000003000000080010000000E00000048
:1009F000300000008001001000100020002000C026
:100A0000FF7F0080FFFF000080010000C0010000A8
:100A100070000000380000007000000000030000BB
:100A20000038000000C000000000000100000002CB
:100A3000000000040000000800000010000000207A
:100A400000000040000000800000000001000300E2
:100A50000000060000000800000020000000400028
:100A600000000008070000381F00001833000010C5
:100A700042000020840000400801008011010000B5
:100A8000FE070000F80F0080FF1F0000FF1F00009E
:100A900020200000208000004000010080000200B3
:100AA0000007060000FC070000E0030000C007008C
:100AB00000E03F0000E0E000004000010080000294
:100AC0000000010400000404000038060000C00714
:100AD0000000E03F0000E0E0000040000100800076
:100AE0000200000104000004040080FF1F0000FF5A
:100AF0003F0000800F0000807F000080C900008060
:100B000011030000210400004208000084100000CE
:100B100010310000E033000000270000400000001A
:100B200080000000C0FF0700C0FF0F00800400002D
:100B30000009000000020000000000020000E70EB3
:100B40000000FF13000063240000824800000491AD
:100B5000000018230100F843020090830700000002
:100B60000600F0FF0300E0FF070000080000000897
:100B7000000000080000001000000060000000807D
:100B8000FF010000FE030020FF070040FE0F0000F1
:100B900000800000F9FF0100F2FF0100FCFF0000EF
:100BA000F8FF0100003000000030000000300000BD
:100BB00000F0010000300F00003038000020C000BD
:100BC0000000000100F0FF0300E0FF070000FE0F3F
:100BD0000000FC1F000010000000100000002000BA
:100BE0000000C000000000FF030000FC070000043C
:100BF000000000040000000800000030000000E0D9
:100C0000FF000000FF010080FF030000FF0700005D
:100C10000C00000008000000180000003000000078
:100C20006000000080FF010000FE030000F80000EB
:100C300000FC0700001C1800000820000010400005
:100C40000020800000C080010000FF010000F800CB
:100C50000000FE7F0000FCFF0000101800001040A4
:100C6000000020800000400001008081030000FEA1
:100C7000030000F0010000E0030000F01F0000701E
:100C80007000002080000040000100800002000091
:100C900002030000FC7F0000FCFF0000F83F0000A2
:100CA000F07F0000C0000000C000000080000000D5
:100CB000000100000010020000780C0000983100D4
:100CC000001043000020840000C0180100803102A1
:100CD0000000E6030000900300000400000008008C
:100CE0000000FE3F0000FCFF00004000010080000B
:100CF00002000000040000FE030000FC0F000000E2
:100D000030000000400000008000000000010000F2
:100D100080010000FF070000FE0F0000040000003B
:100D200078000000C0070000007C000000C0010047
:100D300000C0030000F80000003E0000000C0000AE
:100D40000018000000F0010000001F000000F0018A
:100D50000000C0030000F80000003E0000007C001E
:100D60000000C0070000007C000000F00000007CD4
:100D70000000800F00000003000000020800000CCB
:100D8000180000381C0000C00F0000000E0000001A
:100D90003F000000C3010000010600000008000041
:100DA0000480000078000100C0070200007C0300FE
:100DB00000C0030000E0000000780000001E0000FA
:100DC0000004000000083000001070000020B8008F
:100DD0000040380100801C0200001F0400000E08C3
:100DE0000000041000000001000000070000F8FBF4
:100DF0000300F8E30F001000100020002000C0FFE7
:100E00000F0080FF1F00000100010002000200FC33
:100E1000F10700F0F7070000380000002000000094
:100E2000C0000000C0000000C00000008001000001
:100E30000006000000080000003000000040000034
:100E400000C0000000C0000000DC3F0000F87F0090
:100E500000C80000009000000020000000400000DA
:100E600000800000000003000000FC3F0000F87F4D
:100E7000000070000000A001000060F20300C0F458
:100E8000070080360800003E10000000200000FC33
:100E90007F0000F8FF0000E001000060020000C0D9
:100EA000E4070080EF0F0000621000007E200000C9
:100EB00000400000F8FF0000F0FF0100C0FF030049
:100EC00080FF070080E1030000F1000000F2010054
:100ED00000440200008803000030000000C0FF034F
:100EE0000080FF070000FE0F0000FE1F0000060F3D
:100EF00000008C030000B007000060090000601CC7
:100F00000000C000000000FF0F0000FC1F000018E0
:100F1000000000780000009878000030F90100E03F
:100F200011020080F9070080F90700009F0000000F
:100F300000030000000C000000300000F0FF010082
:100F4000E0FF0300001C000000E00000000E0700AE
:100F5000001630000024400000F8FF0000E0FF0011
:100F600000C0000000803800008058000000B10080
:100F70000000C20F00000460000018800000F0FFB5
:100F80000100C0FF010000300000009300000022BB
:100F9000010000C23F0000047F0000086000001054
:100FA00060000020E00100C0C0040000FF09000054
:100FB000FE1E00000018000030000000D0000000FD
:100FC00030F9010060FA0300C01B0400001B080098
:100FD000000C10000008200000F87F0000DCFF007B
:100FE0000018000000C0030000C004000080C90F0A
:100FF0000000DF1F0000CC200000CC400000F0808B
:10100000000040000100C0FF0300E0FE0700C00038
:10101000000000EE0F0000FE3F00006448000048A2
:1010200090000010C0000020000000C080030000FD
:10103000FF090000FE130000003E00000008000051
:1010400000200000F0FF0100E0FF030080FB030030
:1010500080FF0F000019120000122400000430006D
:10106000000800000030001800C0FF790080FFD7A2
:10107000000000E801000010020000200400FC7FD6
:101080000F00F87F0E0000C000000040020000804A
:10109000E40000F76F0300FFCF0600328005002454
:1010A0000007000800060010001800200060008003
:1010B000FFFF0100FFFF0100000C000000240700FB
:1010C00000480E0070FF3400F0FF280020037C0071
:1010D00040023800800080010001C00000060003CB
:1010E00000F8FF0F00F0FF1F000000F0008001205B
:1010F000018033C00180B5E0030029010F00D20355
:101100000C002C781700D0804A00A0FFF50060FE8C
:10111000F100800700008009000000130000003A81
:10112000000000987F000098FF0000F0790000C0E8
:101130001C00000006000000030000000300000087
:10114000FE3F0000F87F0000E0FF0000E0FF01002C
:1011500060000300C0180100005B010000B6010040
:1011600000C61D00000C7C0000F09F0000C03F0185
:101170000000E00100008000000000020000FF1FEE
:101180000000FE3F0000B83F0000F8FF0000902183
:101190000100204102004000030080000000000325
:1011A000000000FC3F0000F87F000000200000006D
:1011B000E0000000600300C0FF0400807F0D00001D
:1011C000000E0000FC3F0000F87F000018C0000087
:1011D00010470000207B00004076000080380000AF
:1011E0000003000000FC3F0000F87F0000E0FF006B
:1011F00000E0FF010060000300C0180100005B0177
:101200000000B6010000C60100000C000000F0FF65
:101210000000C0FF0100C0FD0100C0FF0700800CFE
:10122000090000091E000002100000040000001860
:10123000000000E0FF0100C0FF0300800300008009
:101240000500000009000000FE3F0000F87F0000DC
:10125000001E00000003000080010000800000006C
:101260008001000000FF1F0000FC3F0000383F002D
:101270000050FE0000B00001002001020040020406
:101280000080050800001A100000E43F0000CC3F79
:10129000000070000000B000000020010000C0FF4E
:1012A000070000FF0F0000000E0000000600000015
:1012B00006000000040000F0FF0000E0FF03000053
:1012C00060060000800700000E000000160000000D
:1012D00024000000F87F0000E0FF01000000020091
:1012E00000000400000008000000100000002000C2
:1012F00000FC7F0000F87F0000E0000000600100BB
:10130000004002000080FF070000FE1F00000020D8
:10131000000000400000008000000000010000000C
:101320000200FFFF0700FEFF070000FE1F0000FE97
:101330003F00002470000078380000001800000012
:10134000E000000000070080FF0F0000FF1F00000A
:10135000FC3F0000FC7F000048E00000F07000004F
:101360000030000000C0010000000E00FCFF1F0064
:10137000F8FF3F0000380000005800000090000017
:1013800000E0FF030080FF070000C0070000F80036
:1013900000003E0000007C000000800F000000F014
:1013A0000000E0FF0300C0FF070000070000000B83
:1013B00000000012000000FC7F0000F0FF000000B1
:1013C000F80000001F0000C0030000800F000000B4
:1013D000F0010000001E00F0FF7F00E0FFFF0000B2
:1013E00000C00000004002000080040000F70F0071
:1013F00000FF0F0000320000002400000008000081
:1014000000100000006000000080FF070000FF0FD8
:1014100000000E0F00001E3F000024420000F8FFF5
:101420000000E0FF00000030000000C000000000ED
:10143000030000FF1F0000FE3F0000783C00007822
:10144000FD000010050100200A02008013040000C6
:101450000008000000100000FE3F0000FC3F0000FC
:1014600060000000E0000000600100004002000099
:1014700080040600001B12000026240000C87F0024
:1014800000187F0000E0FE0000E0FF03004086043B
:101490000080040F000001080000020000000C00A2
:1014A0000000F0FF1F00E0FF3F00C0FC0100C0FD96
:1014B00007008018090000191E000022100000C457
:1014C000000000180E0000E0FF0100C0FF03000054
:1014D000000300000009000000120000DC3F0000D3
:1014E000FC3F0000C8000000900000002000000049
:1014F000400000008001000000FEFF0300FCFF0729
:1015000000180000001800000010000000208001FA
:1015100000408004008000090000FF1F0000FC1F45
:101520000000F87F0000F0FF0000307C0000201E6B
:101530000000403E000080480000007100000006EE
:10154000000000FC7F0000FEFF00000C000000C057
:10155000010000C00200008004000000FF0F000036
:10156000FC3F00000040000000870000001A01005E
:10157000003C02000040040080FF0F0000FF0F004D
:10158000000003000080030000307F000070FF01B6
:101590000020460200408607008008040000310059
:1015A000000086030000FC7F0000FEFF00000C002E
:1015B0000000C0010000C00200008004000000FF25
:1015C0001F0000FC3F000000070000000300006057
:1015D000030000200300004006000080FF0F000011
:1015E000E61F00001C0000002C0000004800000066
:1015F000F0FF0100C0FF03000080030000C00100F5
:1016000080E3000000050700000A380000FCFF002E
:1016100000F8FF01003C00000080F9030080FB0F90
:1016200000009110000062210000044100000880C9
:10163000000030000100C0FF030080FF030000F342
:10164000070000B51F00002A220000944700002870
:1016500080000050000100E0000200C0FF0700C051
:10166000FF070080000000000C0000003C000000AC
:10167000C8000000F0010000C002000000020400E9
:1016800000060C0000FF1F0000FC1F0000301800C7
:1016900000904800002091000080C3010000040277
:1016A00000000C0400001E0F00000C0E0060000083
:1016B00000200100004002000000070000000800B8
:1016C00000001800000018000000180000001000C2
:1016D000000000300000003000000020000000404A
:1016E0000000008000000000FF1F0000FC3F000021
:1016F000180000001800000010000000200000008A
:101700004000000000FF0F0000FE1F00300000003E
:1017100050000000A0000000200100004002000076
:1017200080040000000A00000014000000300000E7
:101730000060000000C00000004001000040020006
:1017400000800400000009000000120000002800D2
:10175000000060000000F0000000E0010000000355
:101760000000000500000009000000120000002435
:1017700000000050000000E00000002001000040D8
:1017800002000000030000000C0000001400000034
:10179000240000004800000090000000400100000C
:1017A000000300008007000000080000001E000089
:1017B0000000008003000000050000003E00000063
:1017C0007C0000003800000050000000E003000032
:1017D00000040000800F000000070000000A000065
:1017E000001C00E0FF0300C0FF070080200800C0CD
:1017F000FF7F0080FFFF00000441000018C50000CB
:10180000E0FB0000E0FF0100C0FF0700000009004E
:10181000000012000000180000FC3F0000F8FF006C
:10182000000020010000C003000000000080FF074E
:101830000000FF1F000000240000004800000060BE
:10184000003000000070000000A000000060FFFFFA
:1018500007C0FCFF1F8001002400060048000800AC
:101860006000F0000000500200002003000040F083
:10187000FF0780FBFF1F001E00240000004800003F
:1018800000600078000000C001000080030000C07C
:1018900003000080F8FF0F00FFFF3F001E0048001C
:1018A000000090000000C00000C0000000400000E8
:1018B0000080000000000100000002000000F8FFAE
:1018C0000F00F0FF1F00E001000060020000C007F1
:1018D000000080010000000E80000006800100FC76
:1018E000FF0100F0FF01E0000000200100002001E6
:1018F000000040040000800C000000150000001BE8
:10190000000000020000000F0000001E0000002C7C
:1019100000000068000000B00000000001000000AE
:1019200002000000060000000700000006000000A2
:1019300030000000B0000000A001000080010000A5
:1019400080000000000B0000000C000000100000F0
:1019500000180000001000000020000000F001004E
:1019600000E0030000000100000002000000380059
:10197000000050000000E0000000400000000001F6
:10198000000080010000000100000000003C000099
:1019900000FE0100000C0300000C0C000008100009
:1019A00000102000002040000040800000808101E5
:1019B000000086010000F8010000E0030000E00CD8
:1019C000000040200000405C000080A8000000D122
:1019D000010000E20100008409000010180000E08E
:1019E0001F0000001F0000020000000C000000F8B3
:1019F000FF0000E0FF03000000040000F009000009
:101A0000F017000020290000405E000080910000D7
:101A10000001010000FE030000FC030000F00700CD
:101A200000301C00002024000040480000807700A7
:101A300000000E0000000200000004000000F80F8B
:101A40000000E01F0000800F0000803F000080C108
:101A50000000000101000072020000B405000068EF
:101A6000070000900B000020100000606000007470
:101A70008000007000000000F8000000F803000083
:101A8000180C0000101000002C27000068590000FE
:101A9000D8720000E0B90000000201000006060054
:101AA00040060800000700000007000000FC0100DD
:101AB00000C07B00000092000000A2030000C405EB
:101AC00000000808000010100000203000008020F6
:101AD0000000007F0000007C000000FC0100000C02
:101AE0000700000809000010120000E01D0000803F
:101AF000010000800000000081010000FE030000E2
:101B0000F8030000FF070000FF03000003000000CF
:101B1000001F0000007F00000083010000C20300DE
:101B2000008400000008030000900F000020350032
:101B30000040520000C0FC0000C8F00000E00000BF
:101B40000000F0010000F807000070180000602C91
:101B500000004054000080C9000000F30000009C19
:101B600000000078000000B8030000300C0000C046
:101B700030000080410000F80100F51911241FBE5B
:101B8000CFE5D8E0DEBFCDBF10E0A0E6B0E0E0E7F3
:101B9000FDE302C005900D92A838B107D9F711E016
:101BA000A8E8B0E001C01D92AF3DB107E1F71BE12D
:101BB000CCE7DBE104C02297FE010E946D1ECA370C
:101BC000D107C9F70E94FC190C94B61E0C940000B2
:101BD0001F920F920FB60F9211248F939F93EF9342
:101BE000FF939091BD018091BE01981761F0E09143
:101BF000BE01EF5FEF71E093BE01F0E0E154FE4FF4
:101C000080818CB901C05598FF91EF919F918F9180
:101C10000F900FBE0F901F9018951092BA0010925F
:101C2000BB0008959C011092BD011092BE0110925C
:101C3000BA001092BB0097FF03C082E08BB93F77D8
:101C400030BD29B988E98AB986E880BD08959091A8
:101C5000BA008091BB00981719F420E031E011C060
:101C6000E091BB00EF5FE093BB00F0E0E454FF4F76
:101C700030812091BC01922F80E0AC01430F511DB7
:101C80009A01C90108955D9BFECF8CB908955D9BB3
:101C9000FECF8CB90895FC0104C05D9BFECF319648
:101CA0008CB980818823C9F7089503C05D9BFECF5E
:101CB0002CB9FC01019624912223C1F708950AC092
:101CC00020E030E000002F5F3F4F46E0263634072B
:101CD000C9F701970097A1F70895D898D99815BA30
:101CE00088BBDA98DA9AD89A0895D898D99A95BB89
:101CF00088BBDA98DA9AD89A08950F931F938B01CC
:101D00000E946D0EC8010E94750E1F910F910895DB
:101D1000D898D99815BA88BBDA98DA9A17BA14BA4B
:101D2000DB98000023B3922F80E026B3DB9AD89A89
:101D30004FEF47BB44BB30E0282B392BC901089536
:101D4000D89AD99ADA9ADB9A9698D09AD19AD29A56
:101D5000D39A8E9A8FEF87BB84BB8AE090E00E9473
:101D60005F0E969A82E390E00E945F0E08950E94B3
:101D7000A00E80E00E946D0E81E090E00E94750E42
:101D80008FE090E00E945F0E83E00E946D0E8CEA6F
:101D90009AEA0E94750E8CE00E946D0E82E090E03F
:101DA0000E94750E8DE00E946D0E8AE090E00E9408
:101DB000750E8EE00E946D0E80E09CE20E94750E12
:101DC0008EE10E946D0E88EB90E00E94750E8FE010
:101DD00090E00E945F0E81E00E946D0E8FE39BE217
:101DE0000E94750E82E00E946D0E80E096E00E94D7
:101DF000750E80E10E946D0E80E090E00E94750EED
:101E000081E10E946D0E80E390E60E94750E84E1F0
:101E100090E00E945F0E85E00E946D0E80E090E0F1
:101E20000E94750E86E00E946D0E80E090E00E9498
:101E3000750E86E10E946D0E8CE19FEE0E94750E7C
:101E400087E10E946D0E83E090E00E94750E87E0AE
:101E50000E946D0E83E392E00E94750E8BE00E945B
:101E60006D0E82E193E50E94750E8FE00E946D0E6B
:101E700080E090E00E94750E84E190E00E945F0E89
:101E800081E40E946D0E80E090E00E94750E82E475
:101E90000E946D0E80E090E00E94750E88E40E9422
:101EA0006D0E80E090E00E94750E89E40E946D0E38
:101EB0008FE391E00E94750E84E40E946D0E80E035
:101EC0009FEE0E94750E85E40E946D0E80E090E00A
:101ED0000E94750E86E40E946D0E8FE391E00E94D1
:101EE000750E84E190E00E945F0E80E30E946D0E0B
:101EF00087E097E00E94750E81E30E946D0E84E0FA
:101F000097E00E94750E82E30E946D0E84E092E0DD
:101F10000E94750E83E30E946D0E81E092E00E94A4
:101F2000750E84E30E946D0E83E092E00E94750EB0
:101F300085E30E946D0E84E092E00E94750E86E3B8
:101F40000E946D0E84E092E00E94750E87E30E946D
:101F50006D0E82E095E00E94750E8AE30E946D0E80
:101F600082E093E00E94750E8BE30E946D0E80E08C
:101F700095E00E94750E84E190E00E945F0E089546
:101F80000F931F938C018EE40E947D0E8FE4B801A5
:101F90000E947D0E82E20E946D0E1F910F910895A6
:101FA000AF92BF92CF92DF92EF92FF921F937C018C
:101FB0006B015A01122F84E40E946D0E912F80E074
:101FC0008C299D290E94750E85E40E946D0EC70123
:101FD0000E94750E86E40E946D0EC5010E94750E6A
:101FE000C701B6010E94C00F1F91FF90EF90DF90D4
:101FF000CF90BF90AF9008950E94C00F809178005D
:10200000909179000E94750E08958F929F92AF92E1
:10201000BF92CF92DF92EF92FF920F931F93CF93D5
:10202000DF934C01F62EE72E5A0169010E94D00F72
:102030002F2D3E2DC901EC010AC0C8010E94750E6A
:102040000894E11CF11CAE14BF04B8F72196CC161D
:10205000DD0610F07401F7CF80E090E060E070E002
:102060004FE351E02FEE30E00E94D00FDF91CF918F
:102070001F910F91FF90EF90DF90CF90BF90AF90A6
:102080009F908F9008950F931F938C0180E090E0B4
:1020900060E070E04FE351E02FEE30E00E94051069
:1020A0001F910F9108954F925F926F927F928F923E
:1020B0009F92AF92BF92CF92DF92EF92FF920F93D7
:1020C0001F93CF93DF932A013901802EAC01415039
:1020D0005040440D551D9B0121503040260D371DA9
:1020E0000E94D00F9924C0E0D0E0AA24BB2432C0C3
:1020F000992019F597012F5F3F4FF70194917901CE
:102100000894E11CF11CF9012491F1E08F1611F003
:10211000822F0CC0822F806230E2932E922225FF04
:1021200005C0F7010894E11CF11C9490C82FD0E081
:10213000192F00E0C02BD12B01C09A94CE010E9430
:10214000750E0894C11CD11CC414D50488F20894DF
:10215000A11CB11CA614B70418F4CC24DD24F4CFC0
:1021600080E090E060E070E04FE351E02FEE30E07F
:102170000E94D00FDF91CF911F910F91FF90EF90B0
:10218000DF90CF90BF90AF909F908F907F906F9097
:102190005F904F900895EF92FF920F931F93CF930C
:1021A000DF939A014F5F5F4FF90104919A012F5F0E
:1021B0003F4FFA01A4915A2F40E0E9012196F9011D
:1021C000A4917E010894E11CF11CFE011491312FB1
:1021D00020E0F7011491B0E04A2B5B2BE12FF0E0F7
:1021E0002E2B3F2B0894E11CF11C0E945310DF9111
:1021F000CF911F910F91FF90EF900895FC01909364
:102200008900809388003296849180938F00319664
:10221000E491E093900008952F923F924F925F9245
:102220006F927F928F929F92AF92BF92CF92DF92E6
:10223000EF92FF920F931F93DF93CF93CDB7DEB74B
:1022400027970FB6F894DEBF0FBECDBF482F609121
:10225000880070918900FB01059114916B5F7F4F9D
:10226000FB01F4906F5F7F4FFB01E490665070407C
:10227000C82EDD24AF2DB0E0F6013796EA1BFB0B2C
:10228000E60FF71F549120917800309179003D833B
:102290002C838A30A9F480917D0020919000829F48
:1022A000C00111242091930030919400280F391F10
:1022B000309394002093930010929200109291001A
:1022C0004F1508F438C1E41608F435C1012B09F4A0
:1022D00032C1552309F42FC180918D00882319F054
:1022E00040908F0019C0842F845D873028F083517F
:1022F000863010F0413D79F420917C00529F90018E
:1023000011248091910090919200821B930B9093E5
:10231000920080939100452E40534A3028F4FB01EF
:10232000EA1BFB0BF7964490442D50E05B834A83F5
:1023300080917C0090E0FC014E9FC0014F9F900D6A
:102340005E9F900D11242091910030919200820F98
:10235000931F80549140A8F080917D0020919000BF
:10236000829FC00111242091930030919400280F86
:10237000391F309394002093930010929200109292
:10238000910040E050E090E096012A1B3B0B07C013
:102390003796E60FF71F8491480F511D9F5FE92F75
:1023A000F0E0E217F307A4F38091900090E0489FDB
:1023B0009001499F300D589F300D11248E2D90E0D3
:1023C00007968A1B9B0B73E0880F991F7A95E1F79C
:1023D000280F391F67E0762E72228824992455240D
:1023E00053E0369527955A95E1F7A9014F5F5F4F66
:1023F0005F834E8376C057E0571520F40894811C04
:10240000911C77248E819F81880D991DE091880011
:10241000F0918900E80FF91FE491E98380917C0035
:10242000589E500111248091910090919200A80E25
:10243000B91E80919300909194000FEE10E0081B5C
:10244000190B80917D00689EC0011124081B190B97
:1024500041E0242E312C072C02C0220C331C0A949C
:10246000E2F7CC242DC0898190E082219321892B31
:1024700029F080917A0090917B0008C080918E00B5
:102480008823C1F080918B0090918C00909379000B
:102490008093780080918A006D2D70E0882329F068
:1024A000CB01800F911FB70103C0600F711FC701DF
:1024B0000E94FC0FD39480917D00D816A0F2C394A3
:1024C00080917C00C81628F4DD247501EC0CF11C09
:1024D000F2CF7394639480919000681608F48BCFC8
:1024E0005394541410F46624F6CF6C817D8170935C
:1024F00079006093780040917C0050917E00842F99
:1025000090E0EA81FB81E89F9001E99F300DF89F00
:10251000300D1124250F311D809191009091920072
:10252000820F931F9093920080939100449E802D80
:102530001124850F01C080E027960FB6F894DEBF06
:102540000FBECDBFCF91DF911F910F91FF90EF9004
:10255000DF90CF90BF90AF909F908F907F906F90C3
:102560005F904F903F902F9008958F929F92AF92DF
:10257000BF92CF92DF92EF92FF920F931F93CF9370
:10258000DF93DC0140918800509189004B5F5F4FE1
:10259000FA01A4904F5F5F4FFA018490465050407B
:1025A00090908D00B0908F0080917C00C82FD0E07B
:1025B0008B2D90E0C89F6001C99FD00CD89FD00C94
:1025C000112480917E00E82EFF2460E070E00A2D47
:1025D00010E021C0992021F09B012C0D3D1D17C05A
:1025E000EA1550F08E1640F0F0E03796E01BF10B44
:1025F000E40FF51F849101C08B2D90E08C9F90011A
:102600008D9F300D9C9F300D1124260F371FB9016F
:102610006E0D7F1D1196EC91EE23E1F6CB01DF915B
:10262000CF911F910F91FF90EF90DF90CF90BF90CF
:10263000AF909F908F90089520917D0080919000A1
:10264000289F90011124C90108950F931F93CF93E0
:10265000DF93EC0100E010E004C00E940C11080FB1
:102660001F5FFE01E10FF11D80818823B1F7802FEC
:1026700090E0DF91CF911F910F9108956F927F921B
:102680008F929F92AF92BF92CF92DF92EF920F9371
:102690001F93CF93DF934C015B016A01E90138017D
:1026A0001E2DC3010E94B5129C01123011F113308E
:1026B00030F4EE2051F0113009F047C011C0133052
:1026C00049F1143009F041C02EC0CA19DB098091CC
:1026D0009000C81BD109D695C795AC0EBD1E35C05C
:1026E000CA19DB0980919000C81BD109D695C795FE
:1026F00022C08C159D0548F5CA19DB098091900010
:10270000C81BD109D695C795AC0EBD1E4601821ACD
:10271000930A1BC0C60188199909821B930B9695D1
:102720008795880E991E80919000FEEFAF2EFFEFE7
:10273000BF2EA81AB108AC0EBD1EC818D908C21AFF
:10274000D30AD694C7948C0C9D1C909292008092D0
:102750009100B0929400A0929300C3010E942513AF
:10276000DF91CF911F910F91EF90DF90CF90BF90AD
:10277000AF909F908F907F906F9008950F931F93CD
:10278000FB01B90110937900009378002FEE30E03F
:10279000D901A61BB70BBD012E1B3F0B0E940510D4
:1027A0001F910F9108958F929F92AF92BF92CF92F7
:1027B000DF92EF92FF920F931F936C014A018FEE0D
:1027C000E82EF12C5701A61AB70AE21AF30A109361
:1027D000790000937800C601B70197010E940510A7
:1027E0000091780010917900C601B501A40195010E
:1027F0000E9405100091780010917900C601B70180
:10280000A60195010E9405100091780010917900B1
:10281000C401B701A40195010E9405101F910F91F9
:10282000FF90EF90DF90CF90BF90AF909F908F90F0
:1028300008952F923F924F925F926F927F928F9264
:102840009F92AF92BF92CF92DF92EF92FF920F933F
:102850001F93DF93CF93CDB7DEB72A970FB6F894C7
:10286000DEBF0FBECDBF3C018FEE90E05C01A61A2B
:10287000B70A821B930B10937900009378006A01CA
:10288000C618D708D7FE04C0D094C194D108D394F9
:102890009C012A193B093A87298737FF05C03095E3
:1028A00021953F4F3A87298778866F82BE82AD8215
:1028B0004615570528F061E070E07C836B8304C007
:1028C000EFEFFFEFFC83EB838A159B0528F021E0F7
:1028D00030E03A83298304C06FEF7FEF7A83698306
:1028E00089859A859C01442737FD4095542FC60160
:1028F000AA2797FDA095BA2FE985FA85CE16DF069F
:102900000CF442C079018A01EE0CFF1C001F111F5C
:10291000E81AF90A0A0B1B0BCF01880F991F1C013B
:10292000442437FC4094542CEC19FD09EE0FFF1F92
:102930004F01AA2497FCA094BA2C1A861986C301C9
:102940006D817E810E94FC0F17FF05C0E20CF31C15
:10295000041D151D0CC0E80CF91C0A1D1B1D2D8142
:102960003E8169817A81260F371F3E832D838985B9
:102970009A8501969A878987EB81FC816E0E7F1E6E
:10298000C816D906E4F643C07C018D01EE0CFF1C8D
:10299000001F111FE21AF30A040B150BC601880F62
:1029A000991F1C01442437FC4094542C29853A85F6
:1029B000C21AD30ACC0CDD1C3601882477FC809423
:1029C000982CCC24DD248F819885B5010E94FC0FC2
:1029D00017FF05C0E20CF31C041D151D0CC0E60C0E
:1029E000F71C081D191D6F8178858B819C81680FEC
:1029F000791F78876F830894C11CD11CE981FA8103
:102A0000AE0EBF1E29853A852C153D05E4F62A96A3
:102A10000FB6F894DEBF0FBECDBFCF91DF911F91EF
:102A20000F91FF90EF90DF90CF90BF90AF909F906D
:102A30008F907F906F905F904F903F902F90089570
:102A40002F923F924F925F926F927F928F929F92BE
:102A5000AF92BF92CF92DF92EF92FF920F931F93AC
:102A6000DF93CF93CDB7DEB72A970FB6F894DEBFCA
:102A70000FBECDBF2C0158874F8318018FEE90E019
:102A8000AC01461B570B5C834B83FC01E21BF30B31
:102A9000FA83E983F0927900E0927800CC2009F47F
:102AA000C4C05801A1E08A2E912C801A910ABF015E
:102AB0006F5F7F4F601B710B9A0121503040200FD8
:102AC000311FC2014F81588587010E9405101A8667
:102AD000198621E030E03E832D8334C0A614B7046C
:102AE00029F1E980FA8049855A85E41AF50AA2019C
:102AF0004A195B09CB80DC8089859A85C80ED91E6E
:102B00000091780010917900CA01B70196010E94E6
:102B100005104F8158854A0D5B1D0091780010917A
:102B20007900CA01B70196010E940510E985FA856E
:102B30003196FA87E9872D813E812F5F3F4F3E8393
:102B40002D83530149855A854A155B0521F1E9809A
:102B5000FA80EA18FB08CB80DC80CA0CDB1C0091F1
:102B6000780010917900C201841B950BB701A20176
:102B700096010E9405104F81588589859A85480FD6
:102B8000591F00917800109179008F819885B701C5
:102B900096010E94051097FE0CC0E3E0F0E08E0E57
:102BA0009F1E89859A85880F991F880E991E350169
:102BB00010C025E030E0820E931E89859A858A191F
:102BC0009B09880F991F880E991E3501089461088A
:102BD00071084D815E81641675060CF07FCFA614D6
:102BE000B70419F1E980FA8089859A85E81AF90A0B
:102BF000A2014A195B09CB80DC80C80ED91E009166
:102C0000780010917900CA01B70196010E94051061
:102C10004F8158854A0D5B1D009178001091790015
:102C2000CA01B70196010E9405105101E1E0F0E0F0
:102C3000E219F309FA87E9876624772451E0852EA3
:102C4000912C2BC08114910411F18A149B04F9F08A
:102C500082010A191B09C980DA80C818D908C8017D
:102C6000B6010E94FC0FEB80FC80E80CF91CC80147
:102C7000B7010E94FC0F0F8118850A0D1B1DC801AA
:102C8000B6010E94FC0FC801B7010E94FC0F089416
:102C9000611C711C0894811C911C6201C618D70824
:102CA00009811A810A191B09C601B8010E94FC0F8B
:102CB000EF80F884E60CF71CC701B8010E94FC0FF6
:102CC0000B811C810A0D1B1DC601B8010E94FC0F5F
:102CD000C701B8010E94FC0F29853A8537FF0AC059
:102CE0002D5F3F4FC301880F991F280F391F3A8767
:102CF000298710C049855A854B5F5F4FC3018A19E8
:102D00009B09880F991F480F591F5A8749870894B4
:102D1000A108B108A814B9040CF094CF29813A8114
:102D2000221933090091780010917900C201B9018C
:102D30004F8158850E9405102B813C81220D331D47
:102D40000091780010917900C201B9014F81588536
:102D50000E940510A20142195309009178001091B8
:102D60007900CA0169817A812B813C810E9405101A
:102D70004F815885420D531D0091780010917900C4
:102D8000CA0169817A812B813C810E9405102A96B3
:102D90000FB6F894DEBF0FBECDBFCF91DF911F916C
:102DA0000F91FF90EF90DF90CF90BF90AF909F90EA
:102DB0008F907F906F905F904F903F902F900895ED
:102DC0002F923F924F925F926F927F928F929F923B
:102DD000AF92BF92CF92DF92EF92FF920F931F9329
:102DE000DF93CF93CDB7DEB72F970FB6F894DEBF42
:102DF0000FBECDBF9C878B870D878FEE90E0861B23
:102E0000970B9E838D8330937900209378006A011D
:102E100001E0E02EF12CE41AF50AEB85FC85FA833B
:102E2000E983FC83EB832D803E8021011A8619867D
:102E300021E030E038872F838D819E818C0D9D1D90
:102E40009F878E87AD80BE80AC18BD086B847C8464
:102E50006C187D088B849C848C0C9D1C9D8599230B
:102E600071F1009178001091790089819A816E85C5
:102E70007F854B815C819B010E9405100091780049
:102E80001091790089819A81B5014B815C8195010E
:102E90000E9405100091780010917900C301B101E2
:102EA000A40191010E940510009178001091790011
:102EB000C301B201A40192010E94051026C08B81BA
:102EC0009C816E857F850E94FC0FC401B1010E9428
:102ED000FC0F89819A816E857F850E94FC0FC3015A
:102EE000B1010E94FC0FC401B2010E94FC0F8B8152
:102EF0009C81B5010E94FC0F89819A81B5010E94D5
:102F0000FC0FC301B2010E94FC0FF7FE0DC0E3E00D
:102F1000F0E0EE0EFF1E89859A85880F991FE80E56
:102F2000F91E8F81988511C025E030E0E20EF31E76
:102F300089859A858C199D09880F991FE80EF91EBD
:102F40008F8198850894C108D108E985FA85319662
:102F5000FA87E9872F8138852F5F3F4F38872F8386
:102F6000E981FA813197FA83E9832B813C812F5FD4
:102F70003F4F3C832B830894211C311C089441084B
:102F80005108C816D9060CF057CF2F960FB6F894F3
:102F9000DEBF0FBECDBFCF91DF911F910F91FF908C
:102FA000EF90DF90CF90BF90AF909F908F907F90E9
:102FB0006F905F904F903F902F900895AF92BF9287
:102FC000CF92DF92EF92FF920F931F936C015B0100
:102FD000CA0179010E94FE1010937B0000937A00D1
:102FE000D0929200C0929100B0929400A09293006F
:102FF000C7010E9425131F910F91FF90EF90DF9062
:10300000CF90BF90AF900895BF92CF92DF92EF9292
:10301000FF920F931F937C016B01CA01B22E0E9495
:10302000FE1010937B0000937A00F0929200E092E1
:103030009100D0929400C09293008B2D0E940C11AD
:103040001F910F91FF90EF90DF90CF90BF90089568
:103050002AE030E040E050E00E942E1EC901DA0173
:1030600020E030E906C0F9013197F1F70197A10995
:10307000B109181619061A061B06ACF308952AE0C2
:1030800030E040E050E00E942E1EC901DA0131E339
:1030900006C0232F2A95F1F70197A109B109181647
:1030A00019061A061B06ACF3089586B1876186B926
:1030B00067B93E9A3D9A379A20E030E0369A349BC1
:1030C000FECF349A85B12F5F3F4F22303105B1F7E3
:1030D00090E00895FC0143855485218D328DC9010E
:1030E0000297481759072CF42E5F3F4F24173507D6
:1030F0008CF0478150852789308DC9010297481788
:1031000059072CF42E5F3F4F241735071CF080E041
:1031100090E0089508950F931F938C01D798D69847
:103120008AB380638ABBDD9ADC98D801ED91FC916B
:10313000369780819181800F911F67E070E00E9437
:1031400055189C01F801948B838B235230404427FF
:1031500037FD4095542FCA01B9010E94941C20E00C
:1031600030E040EA53E40E945D1D20E030E043E49B
:1031700053E40E94F91B0E94611CD80118967C93AD
:103180006E93179753968C91539754969C911F91D9
:103190000F9108950F931F938C01D598D4988AB3FB
:1031A000806C8ABBDF9ADE98D801ED91FC9136974E
:1031B00080819181800F911F65E070E00E94551819
:1031C0009C01F801968B858B2D523040442737FDAA
:1031D0004095542FCA01B9010E94941C20E030E0B0
:1031E00040E753E40E945D1D20E030E04AE253E4F2
:1031F0000E94F91B0E94611C20EF30E0261B370B58
:10320000D8011C963C932E931B9755968C915597FD
:1032100056969C911F910F9108950F931F938C01C7
:1032200064EF71E080E090E00E942818C8010E94DD
:10323000CA18F80183859485928F818F86E69EE077
:103240000197F1F7C8010E948B18F80187819085DA
:10325000908F878B1F910F9108950E940D190895EB
:10326000CF93DF93EC010E948B1886E69EE00197D6
:10327000F1F7CE010E94CA188D899E898D978B3AED
:10328000910508F05AC08B899C89833291050CF412
:1032900054C0873E91050CF050C0CE010E946A18C0
:1032A000892B09F04AC088EE93E020E731E0F9016C
:1032B0003197F1F70197D9F7CE010E94CA1886E637
:1032C0009EE00197F1F7CE010E948B188F819885BF
:1032D000988B8F878B859C859A8B898B88EE93E062
:1032E00020E731E0F9013197F1F70197D9F7CE01E5
:1032F0000E94CA1886E69EE00197F1F7CE010E946F
:103300008B18CE010E946A18892BB9F48F85988991
:103310002F813885821B930B05960B9758F040E060
:1033200050E089899A892B853C85821B930B0596F1
:103330000B9728F441E050E002C040E050E0CA01A1
:10334000DF91CF9108950F931F93FC01A781B08562
:10335000A217B307DCF46A177B07C4F4238534850E
:10336000201731071CF020E030E009C090E0421740
:1033700053070CF091E081E09827292F30E0B287C5
:10338000A187838594859687858702C020E030E0F9
:10339000C9011F910F910895CF93DF93EC01CE01E6
:1033A0000E9430192D853E854B855C85C9010497A7
:1033B000481759072CF02C5F3F4F241735077CF72F
:1033C00029853A854F815885C901049748175907BF
:1033D0002CF02C5F3F4F241735070CF718861F82FF
:1033E0001C861B86DF91CF91089585E890E090932D
:1033F000A00080939F0008952F923F924F925F927A
:103400006F927F928F929F92AF92BF92CF92DF92F4
:10341000EF92FF920F931F93DF93CF93CDB7DEB759
:1034200067970FB6F894DEBF0FBECDBF5E0108945C
:10343000A11CB11C8AE0D5011D928A95E9F70E9472
:10344000B70E8D9A959A80E090E00E9443108FE924
:1034500090E00E940D1987E090E00E94120E8AE031
:1034600090E06AE070E046E450E026E430E000E0FE
:1034700010E0E12CE8EFFE2ECC24C3940E9420152E
:1034800080E090E0A0E0B0E08B8B9C8BAD8BBE8B9E
:103490008F87988BA98BBA8B0F2EF0E06F2EF0E000
:1034A0007F2EF0E48F2EF0E49F2EF02DAF8AAB2C10
:1034B000C401B3012BED3FE049E450E40E945D1DDF
:1034C00020E030E044E353E40E94F91B7B018C01CF
:1034D000C8010E94F61B20E030E04CED52E40E944F
:1034E0005D1D6B877C878D879E87B701C8010E9411
:1034F000C01D20E030E04CED52E40E945D1D1B0138
:103500002C0180E690E00E944B0E85E690E00E9440
:103510004B0EC401B3010E94611CDC01CB016F8919
:103520007A2D4AE050E00E94711E8F899A2D0E94E8
:103530004B0E6B897C898D899E8920E030E040E2CA
:1035400053E40E94921B0E94661C6B017C016F85F4
:10355000788989899A8920E030E040EF52E40E941E
:10356000921B0E94661C8B019C0180EA90E068E738
:1035700070E0A601980100E010E00E9419146B852C
:103580007C858D859E8520E030E040E253E40E94FA
:10359000921B0E94661C6B017C01C201B10120E0FC
:1035A00030E040EF52E40E94921B0E94661C8B01A7
:1035B0009C0180EA90E068E770E0A601980100E0D5
:1035C00018EF0E9419146B857C858D859E8520E0FF
:1035D00030E04AE753E40E945D1D20E030E046E918
:1035E00053E40E94F91B20E030E040E253E40E94E3
:1035F000921B0E94611C7B018C01C201B10120E081
:1036000030E04AE753E40E945D1D20E030E046E9E7
:1036100053E40E94F91B20E030E040EF52E40E94A6
:10362000921B0E94611C9B01AC01C701B90143E0E0
:1036300050E020E038EF00E00E94E0168AE090E0E1
:103640006AE070E042E750E029810FEF1FEF0E942F
:10365000041882E390E062E370E042E750E02A81E0
:103660000E9404188EE690E00E944B0E80E790E0E6
:103670000E944B0E6B857C858D859E850E94611C0A
:10368000DC01CB016F897A2D4AE050E00E94711E67
:103690000E944B0E8EE690E00E944B0E84E790E075
:1036A0000E944B0EC201B1010E94611CDC01CB01E2
:1036B0006F897A2D4AE050E00E94711E0E944B0EE5
:1036C000C401B30120E030E040E050E40E94921BCE
:1036D0003B014C0120E030E044EB53E40E94591DD3
:1036E000181654F40F2EF0E06F2EF0E07F2EF0E06D
:1036F0008F2EF0E09F2EF02D88EE93E0E0E7F1E0D2
:103700003197F1F70197D1F78B859C85AD85BE8503
:103710008B8B9C8BAD8BBE8B2F86388A498A5A8ABD
:10372000C7CE5058BB27AA270ED078C141D130F060
:1037300046D120F031F49F3F11F41EF436C10EF44F
:10374000E095E7FB2CC1E92F8BD180F3BA17620714
:1037500073078407950718F071F49EF5A3C10EF462
:10376000E0950B2EBA2FA02D0B01B90190010C0191
:10377000CA01A0011124FF27591B99F0593F50F4A9
:10378000503E68F11A16F040A22F232F342F442701
:10379000585FF3CF469537952795A795F0405395F9
:1037A000C9F77EF41F16BA0B620B730B840BBAF0C9
:1037B0009150A1F0FF0FBB1F661F771F881FC2F734
:1037C0000EC0BA0F621F731F841F48F48795779548
:1037D0006795B795F7959E3F08F0B3CF9395880FFF
:1037E00008F09927EE0F979587950895F0D0E39507
:1037F00026C10CD013C1E3D040F0DAD030F021F470
:103800005F3F19F0CCC051114EC1CFC029D198F300
:103810009923C9F35523B1F3951B550BBB27AA2751
:1038200062177307840738F09F5F5F4F220F331FC3
:10383000441FAA1FA9F333D00E2E3AF0E0E830D08F
:1038400091505040E695001CCAF729D0FE2F27D092
:10385000660F771F881FBB1F261737074807AB0760
:10386000B0E809F0BB0B802DBF01FF2793585F4FD5
:103870002AF09E3F510568F092C015C15F3FECF3FE
:10388000983EDCF3869577956795B795F7959F5F9A
:10389000C9F7880F911D9695879597F90895E1E0EE
:1038A000660F771F881FBB1F621773078407BA074D
:1038B00020F0621B730B840BBA0BEE1F88F7E095A8
:1038C000089504D06894B111EEC00895D1D088F065
:1038D0009F5790F0B92F9927B751A0F0D1F0660FFC
:1038E000771F881F991F1AF0BA95C9F712C0B13017
:1038F00081F0D8D0B1E00895D5C0672F782F882700
:10390000B85F39F0B93FCCF3869577956795B39555
:10391000D9F73EF490958095709561957F4F8F4FC4
:103920009F4F0895E89409C097FB3EF490958095C9
:10393000709561957F4F8F4F9F4F9923A9F0F92F75
:1039400096E9BB279395F695879577956795B795F3
:10395000F111F8CFFAF4BB0F11F460FF1BC06F5FD9
:103960007F4F8F4F9F4F16C0882311F096E911C0EB
:10397000772321F09EE8872F762F05C0662371F00C
:1039800096E8862F70E060E02AF09A95660F771F20
:10399000881FDAF7880F9695879597F9089597F914
:1039A0009F6780E870E060E008959FEF80EC0895E5
:1039B00000240A941616170618060906089500240E
:1039C0000A9412161306140605060895EECF50D079
:1039D000E8F3E894E0E0BB279F57F0F02AED3FE0E2
:1039E00049EC06C0EE0FBB0F661F771F881F28F03B
:1039F000B23A62077307840728F0B25A620B730B5E
:103A0000840BE3959A9572F7803830F49A95BB0F42
:103A1000661F771F881FD2F79048DEC0092E0394D7
:103A2000000C11F4882352F0BB0F40F4BF2B11F4AB
:103A300060FF04C06F5F7F4F8F4F9F4F0895EF93DC
:103A4000E0FF06C0A2EA2AED3FE049EC5FEB7BDE37
:103A5000E5DF0F90039401FC9058E4E5F0E0C8C066
:103A600057FD9058440F551F59F05F3F71F047952F
:103A7000880F97FB991F61F09F3F79F08795089514
:103A8000121613061406551FF2CF4695F1DF08C033
:103A9000161617061806991FF1CF86957105610550
:103AA00008940895E894BB2766277727CB0197F9F8
:103AB00008956CD008F48FEF08950BD0AFCF78DF66
:103AC00028F07DDF18F0952309F069CF6ECF11241F
:103AD000EACFC6DFA0F3959FD1F3950F50E0551FB5
:103AE000629FF001729FBB27F00DB11D639FAA2753
:103AF000F00DB11DAA1F649F6627B00DA11D661FA2
:103B0000829F2227B00DA11D621F739FB00DA11DC2
:103B1000621F839FA00D611D221F749F3327A00D7C
:103B2000611D231F849F600D211D822F762F6A2F18
:103B300011249F5750408AF0E1F088234AF0EE0F9D
:103B4000FF1FBB1F661F771F881F91505040A9F7AA
:103B50009E3F510570F023CFA6CF5F3FECF3983E18
:103B6000DCF3869577956795B795F795E7959F5F11
:103B7000C1F7FE2B880F911D9695879597F90895AB
:103B80009F9325DF0F9007FCEE5F59CF990F000838
:103B9000550FAA0BE0E8FEEF16161706E807F9071F
:103BA000C0F012161306E407F50798F0621B730BBA
:103BB000840B950B39F40A2661F0232B242B252B3B
:103BC00021F408950A2609F4A140A6958FEF811DDE
:103BD000811D08959F3F31F0915020F4879577958E
:103BE0006795B795880F911D9695879597F90895D4
:103BF0009F938F937F936F93FF93EF939B01AC0100
:103C00005CDFEF91FF9105D02F913F914F915F9134
:103C100054CFDF93CF931F930F93FF92EF92DF92D6
:103C20007B018C01689405C0DA2EEF0152DFFE01A2
:103C3000E894A5912591359145915591AEF3EF0109
:103C400082DDFE019701A801DA9479F7DF90EF9009
:103C5000FF900F911F91CF91DF91089597FB092E4F
:103C600005260ED057FD04D014D00AD0001C38F41D
:103C700050954095309521953F4F4F4F5F4F089598
:103C8000F6F790958095709561957F4F8F4F9F4F78
:103C90000895A1E21A2EAA1BBB1BFD010DC0AA1F8D
:103CA000BB1FEE1FFF1FA217B307E407F50720F0A5
:103CB000A21BB30BE40BF50B661F771F881F991F20
:103CC0001A9469F760957095809590959B01AC0169
:103CD000BD01CF010895EE0FFF1F0590F491E02D77
:103CE0000994FB019F01E8944230C4F04532B4F4DA
:103CF0004A3029F497FB1EF4909581959F4F642FCD
:103D000077270E94A21E805D8A330CF0895D819323
:103D1000CB010097A1F716F45DE251931082C9011F
:103D20000C94921EDC01FC01672F71917723E1F75F
:103D3000329704C07C916D9370836291AE17BF0778
:103D4000C8F30895AA1BBB1B51E107C0AA1FBB1FE4
:103D5000A617B70710F0A61BB70B881F991F5A9517
:103D6000A9F780959095BC01CD010895F894FFCFF7
:103D70000A0D0A0D00416E676C653A2D20000A009D
:103D8000583A2000593A2000FFFFFFFF01010100CF
:083D90000000000000850000A6
:00000001FF
