:100000000C94AE0D0C94CB0D0C94CB0D0C94CB0D2D
:100010000C94CB0D0C94CB0D0C94CB0D0C94CB0D00
:100020000C94CB0D0C94CB0D0C94CB0D0C94CB0DF0
:100030000C94CB0D0C94CD0D0C94F70D0C94CB0DB2
:100040000C94CB0D0C94CB0D0C94CB0D0C94CB0DD0
:100050000C94CB0D1B0810210120F90A02060A0995
:100060000E090306060708030703070A0A0A0A0A15
:100070000A0A0A0A0A0303060706090F0A0A0A0AF5
:1000800009080B0A02060A080F0C0C0A0C0A0B0AD4
:100090000A0C0E0B0C0A04080408090509090809D2
:1000A0000A070A0902030A020E09090909060907D3
:1000B00009090E0909080602060A000000000000EE
:1000C0000000000000000000000000000000000030
:1000D0000000000000000000000000000A09090AFA
:1000E0000A0D07090C0B0B0E0E0C0C0A0D0F0F0A54
:1000F0000A090C090D0C0C09090D0D0C0A09090956
:10010000090C080B0E0A0C0D090A09080907070A51
:100110000A0A0A0405030000000008050A08080985
:1001200007080802080906070000000B0B0D0A0C5F
:100130000C0C0D0C0E000000000000000000000080
:1001400000000000000000000000000000000000AF
:10015000000000000000000000000000000000C0DF
:10016000FF0D0080FF1B0000080000000E000000D3
:10017000040000006000000070000000200000008B
:100180000044000000881F0000F00700007C02000F
:10019000004C04000080E80100007F0000C02F0038
:1001A00000C04500000088000000380C0000F8384E
:1001B000000018C3000030060100F0FF0F00C0105F
:1001C000040080610C00008E0F0000180E00007803
:1001D000000000F80100000804010010080300C03E
:1001E0008F0100008F010000C0000000C00000006F
:1001F000603C000060FC00003004020020080400A5
:1002000000E00700008007000080070000BC1F001E
:1002100000FC43000018870000B01B0100C063020F
:10022000000080070000800F0000001B0000080095
:1002300000000E00000004000000C07F0000E0FF8E
:100240000700F0001E007000E00030008003300066
:10025000000C20000018800100180006001C007827
:10026000001F00C0FF0F0000FE0300800D00000013
:100270001A00000008000000FE010000200000003D
:10028000A00000006003000000200000004000000B
:100290000080000000F01F0000E03F0000000400AC
:1002A00000000800000010000000004C0000005892
:1002B00000000070000000010000000200000004C7
:1002C00000000008000000100000002000000040B6
:1002D000000000003000000070000000C0000000BE
:1002E000C0010000C00000006000000070000000BD
:1002F00030000000180000001C000000E01F00009B
:10030000E07F0000608001006000060040000800FF
:100310008000100000033000000C300000F03F00AF
:1003200000C01F00000000000000000000000300EB
:1003300000000300000003000000FE7F0000FCFF3F
:1003400000000000000000000000000000000006A7
:100350000F00000F1F0000032300000247000004ED
:10036000860000080E0100100C0200601C040080D2
:100370001F0800001E100000080C00001C380000C0
:100380000CC0000008000100100402002008040056
:10039000401008008051180000BE1900003C3E00CB
:1003A00000000C0000001E000000260000004600B7
:1003B0000000870000000301000003020000FE7F30
:1003C0000000FCFF00000010000080C30000E08778
:1003D000030040040C0080041000000920000012FB
:1003E00040000024800000C8C1010010FF0100008F
:1003F000FC000000FE010000FE0F000022100000C3
:10040000224000004480000088000100100102002A
:100410006006060080F9070000E207000001000006
:1004200000020000000480000008F0010010F80342
:1004300000203C0000401E0000800E00000007006D
:10044000000006000000703C0000F0FD0000300AD3
:100450000100200804004010080080201000004126
:1004600020000046210000F87E0000E0780000C077
:10047000C70000C09F0300C0600C00808010000017
:10048000012100000242000004C6000030C6000046
:10049000E0FF0000007F000080010C0000071C004E
:1004A00000063000000860020038C002002080030F
:1004B00000000800000028000000D8000000100123
:1004C0000000100400003018000080080000001137
:1004D000000000220000004400000088000000101E
:1004E0000100002002000030180000401000000051
:1004F000110000003600000028000000200000006D
:100500000E0000001E0000000600000004000000B5
:1005100008BC0100107C0300200C000080080000D3
:10052000000F000000E0030000F00F00007030003A
:100530000020C00000203C010040FC0400400609EF
:1005400000800C11000019230000E24F0000CCD104
:100550000000902001006020000080730000003C3B
:10056000000000001E000080070000E0070000F807
:1005700008000038100000F0200000C04F0000000C
:10058000FC000000C00F0000003C0000FE7F0000E7
:10059000FCFF000008020100100402002008040013
:1005A000401008008020100000B73000007C3F00A1
:1005B00000203C0000801F0000C0FF0000C081033D
:1005C00000C0000C0080001000000120000002406C
:1005D00000000480000010800000E0E00100E0FF67
:1005E0000700C0FF0F008000100000012000000283
:1005F0004000000480000010800000E0C001008086
:10060000FF010000FC000080FF1F0000FF3F000012
:100610008240000004810000080201001004020072
:1006200020080400401008008000100000FF3F0078
:1006300000FE7F000004010000080200001004001A
:100640000020080000401000008000000000F003BF
:100650000000F81F0000387000001080000010003B
:10066000020020000400402008008041180000869D
:100670001800001C3F000020FE0000F8FF0100F001
:10068000FF03000008000000100000002000000030
:10069000400000008000000000010000F8FF0100A1
:1006A000F0FF0300E0FF0700C0FF0F000000100094
:1006B00000002000000040000000C00000F8FF0023
:1006C00000F0FF0000E0FF0700C0FF0F0000C001C6
:1006D0000000C0000000C0000000E0010000600E4B
:1006E00000006078000060C0030040000E0080FF42
:1006F0001F0000FF3F0000004000000080000000DD
:10070000000100000002000000040000000800805A
:10071000FF1F0000FF3F00000E00000078000000F7
:10072000C0070000003C000000E0030000000E00D5
:1007300000000F000080030000E0010000700000D6
:100740000018000000F0FF0300E0FF0700C0FF0FEB
:100750000080FF1F0000030000001C00000060007C
:10076000000080030000001C0000007000000080FA
:10077000030000001C0000FF3F0000FE7F0000C0DF
:100780000F0000E07F0000E0C001004000020040D8
:10079000000800800010000001200000024000005E
:1007A0000840000070E00000C0FF0000007E000074
:1007B000C0FF0F0080FF1F00008100000002010049
:1007C0000004020000080400001008000060180087
:1007D00000801F0000001E000000F0030000F81F52
:1007E000000038700000108000001000020020009F
:1007F0000400400038008000D00000033001001CDD
:10080000380200F03F0400801F0000F0FF0300E00A
:10081000FF07004020000080400000008100000031
:1008200002010000040E000018FE0000E087030033
:1008300080070400000F0300003F0C00006330003D
:1008400000C24000000483000008060100100C02F2
:1008500000601804008063040000C20F0000000F55
:10086000000002000000040000000800000010006A
:100870000000E0FF0700C0FF0F0080000000000143
:100880000000000200000004000000F87F0000F0FB
:10089000FF0100000006000000080000001000003A
:1008A000002000000040000000C00000F8FF000031
:1008B000F0FF000020000000C0030000003F000027
:1008C00000F0030000001F000000F0000000C00165
:1008D0000000F00000007C0000001F000080070006
:1008E0000000010000007E000000FC07000000FE88
:1008F000000000C0030000C0070000FE0000801FD1
:100900000000003F000000F0070000007E00000033
:10091000C0010000F00300E07F0000C00F00008075
:1009200000100000033000000E380000701C0000B2
:10093000C00F0000000E0000007E000000C7030092
:1009400080030E0000013800000040000004000099
:100950000018000000F000000080070000001E00EA
:100960000000F01F0000C03F0000E0000000E000B9
:100970000000700000003000000020000000400077
:100980000C0080001C0000012E0000024E0000043C
:100990008700008803010090030200E0010400C00A
:1009A0000108008000100000FFFF0100FEFF0300AF
:1009B000040004000800080030000000800100006E
:1009C000000E0000003000000080010000000E005A
:1009D0000000300000008001001000100020002006
:1009E00000C0FF7F0080FFFF000080010000C00109
:1009F00000007000000038000000700000000003DC
:100A000000000038000000C00000000000010000ED
:100A100000020000000400000008000000100000B8
:100A200000200000004000000080000000000100E5
:100A30000300000006000000080000002000000085
:100A4000400000000008070000381F0000183300B5
:100A500000104200002084000040080100801101C5
:100A60000000FE070000F80F0080FF1F0000FF1FBE
:100A700000002020000020800000400001008000D5
:100A800002000007060000FC070000E0030000C0B1
:100A9000070000E03F0000E0E000004000010080AF
:100AA00000020000010400000404000038060000F9
:100AB000C0070000E03F0000E0E00000400001004F
:100AC00080000200000104000004040080FF1F00F9
:100AD00000FF3F0000800F0000807F000080C90001
:100AE000008011030000210400004208000084106F
:100AF000000010310000E03300000027000040003B
:100B0000000080000000C0FF0700C0FF0F0080044D
:100B100000000009000000020000000000020000C8
:100B2000E70E0000FF13000063240000824800006D
:100B30000491000018230100F8430200908307008D
:100B400000000600F0FF0300E0FF070000080000BF
:100B50000008000000080000001000000060000015
:100B60000080FF010000FE030020FF070040FE0F91
:100B7000000000800000F9FF0100F2FF0100FCFF0F
:100B80000000F8FF010000300000003000000030DD
:100B9000000000F0010000300F000030380000209D
:100BA000C0000000000100F0FF0300E0FF070000AC
:100BB000FE0F0000FC1F00001000000010000000ED
:100BC00020000000C000000000FF030000FC070040
:100BD00000040000000400000008000000300000D5
:100BE00000E0FF000000FF010080FF030000FF079E
:100BF00000000C0000000800000018000000300099
:100C000000006000000080FF010000FE030000F80B
:100C1000000000FC0700001C180000082000001065
:100C200040000020800000C080010000FF010000A3
:100C3000F8000000FE7F0000FCFF0000101800001C
:100C4000104000002080000040000100808103006F
:100C500000FE030000F0010000E0030000F01F00B0
:100C60000070700000208000004000010080000241
:100C7000000002030000FC7F0000FCFF0000F83FC2
:100C80000000F07F0000C0000000C00000008000F5
:100C90000000000100000010020000780C00009825
:100CA0003100001043000020840000C018010080C3
:100CB00031020000E6030000900300000400000081
:100CC00008000000FE3F0000FCFF000040000100A3
:100CD000800002000000040000FE030000FC0F0082
:100CE0000000300000004000000080000000000113
:100CF000000080010000FF070000FE0F000004005C
:100D0000000078000000C0070000007C000000C068
:100D1000010000C0030000F80000003E0000000CCD
:100D200000000018000000F0010000001F0000009B
:100D3000F0010000C0030000F80000003E000000C9
:100D40007C000000C0070000007C000000F00000F4
:100D5000007C0000800F000000030000000208007B
:100D6000000C180000381C0000C00F0000000E002E
:100D700000003F000000C301000001060000000861
:100D800000000480000078000100C0070200007C21
:100D9000030000C0030000E0000000780000001E17
:100DA0000000000400000008300000107000002067
:100DB000B8000040380100801C0200001F04000041
:100DC0000E080000041000000001000000070000F1
:100DD000F8FB0300F8E30F001000100020002000D3
:100DE000C0FF0F0080FF1F00000100010002000291
:100DF00000FCF10700F0F7070000380000002000B9
:100E00000000C0000000C0000000C0000000800121
:100E10000000000600000008000000300000004054
:100E2000000000C0000000C0000000DC3F0000F82F
:100E30007F0000C80000009000000020000000407B
:100E4000000000800000000003000000FC3F0000E4
:100E5000F87F000070000000A001000060F20300B5
:100E6000C0F4070080360800003E1000000020009B
:100E700000FC7F0000F8FF0000E0010000600200BD
:100E800000C0E4070080EF0F0000621000007E2029
:100E9000000000400000F8FF0000F0FF0100C0FF6C
:100EA000030080FF070080E1030000F1000000F272
:100EB000010000440200008803000030000000C070
:100EC000FF030080FF070000FE0F0000FE1F000070
:100ED000060F00008C030000B0070000600900004E
:100EE000601C0000C000000000FF0F0000FC1F009D
:100EF0000018000000780000009878000030F90128
:100F000000E011020080F9070080F90700009F004F
:100F1000000000030000000C000000300000F0FFA3
:100F20000100E0FF0300001C000000E00000000ED4
:100F30000700001630000024400000F8FF0000E029
:100F4000FF0000C000000080380000805800000052
:100F5000B1000000C20F0000046000001880000013
:100F6000F0FF0100C0FF010000300000009300000E
:100F70000022010000C23F0000047F000008600062
:100F8000001060000020E00100C0C0040000FF0964
:100F90000000FE1E00000018000030000000D0001D
:100FA000000030F9010060FA0300C01B0400001BC0
:100FB0000800000C10000008200000F87F0000DC92
:100FC000FF000018000000C0030000C00400008003
:100FD000C90F0000DF1F0000CC200000CC40000043
:100FE000F080000040000100C0FF0300E0FE0700A9
:100FF000C000000000EE0F0000FE3F00006448004B
:10100000004890000010C0000020000000C08003D5
:101010000000FF090000FE130000003E0000000871
:10102000000000200000F0FF0100E0FF030080FB53
:10103000030080FF0F0000191200001224000004BA
:101040003000000800000030001800C0FF79008068
:10105000FFD7000000E8010000100200002004009B
:10106000FC7F0F00F87F0E0000C00000004002006F
:101070000080E40000F76F0300FFCF060032800518
:10108000002400070008000600100018002000607F
:101090000080FFFF0100FFFF0100000C00000024A2
:1010A000070000480E0070FF3400F0FF2800200306
:1010B0007C0040023800800080010001C000000672
:1010C000000300F8FF0F00F0FF1F000000F0008099
:1010D0000120018033C00180B5E0030029010F0029
:1010E000D2030C002C781700D0804A00A0FFF50036
:1010F00060FEF1008007000080090000001300007E
:10110000003A000000987F000098FF0000F079008E
:1011100000C01C00000006000000030000000300E7
:101120000000FE3F0000F87F0000E0FF0000E0FF4D
:10113000010060000300C0180100005B010000B660
:10114000010000C61D00000C7C0000F09F0000C0E4
:101150003F010000E00100008000000000020000EC
:10116000FF1F0000FE3F0000B83F0000F8FF000036
:101170009021010020410200400003008000000097
:101180000003000000FC3F0000F87F00000020008A
:101190000000E0000000600300C0FF0400807F0D3D
:1011A0000000000E0000FC3F0000F87F000018C0A7
:1011B000000010470000207B0000407600008038CF
:1011C00000000003000000FC3F0000F87F0000E08A
:1011D000FF0000E0FF010060000300C018010000F4
:1011E0005B010000B6010000C60100000C00000019
:1011F000F0FF0000C0FF0100C0FD0100C0FF0700BC
:10120000800C090000091E0000021000000400000C
:101210000018000000E0FF0100C0FF030080030091
:1012200000800500000009000000FE3F0000F87F7C
:101230000000001E0000000300008001000080008C
:1012400000008001000000FF1F0000FC3F0000388C
:101250003F000050FE0000B00001002001020040ED
:1012600002040080050800001A100000E43F00009E
:10127000CC3F000070000000B00000002001000022
:10128000C0FF070000FF0F0000000E000000060076
:10129000000006000000040000F0FF0000E0FF0373
:1012A000000060060000800700000E00000016002D
:1012B000000024000000F87F0000E0FF01000000B3
:1012C0000200000004000000080000001000000000
:1012D000200000FC7F0000F87F0000E000000060BC
:1012E0000100004002000080FF070000FE1F000018
:1012F000002000000040000000800000000001000D
:1013000000000200FFFF0700FEFF070000FE1F00B5
:1013100000FE3F0000247000007838000000180034
:101320000000E000000000070080FF0F0000FF1F2A
:101330000000FC3F0000FC7F000048E00000F0706F
:1013400000000030000000C0010000000E00FCFFA3
:101350001F00F8FF3F000038000000580000009018
:10136000000000E0FF030080FF070000C00700004E
:10137000F80000003E0000007C000000800F00002C
:1013800000F00000E0FF0300C0FF070000070000BE
:10139000000B00000012000000FC7F0000F0FF00C6
:1013A0000000F80000001F0000C0030000800F00D4
:1013B0000000F0010000001E00F0FF7F00E0FFFFD2
:1013C000000000C00000004002000080040000F7A0
:1013D0000F0000FF0F000032000000240000000892
:1013E000000000100000006000000080FF07000007
:1013F000FF0F00000E0F00001E3F000024420000FF
:10140000F8FF0000E0FF00000030000000C0000016
:101410000000030000FF1F0000FE3F0000783C00BA
:101420000078FD000010050100200A02008013046E
:1014300000000008000000100000FE3F0000FC3F1C
:10144000000060000000E0000000600100004002B9
:10145000000080040600001B12000026240000C8C3
:101460007F0000187F0000E0FE0000E0FF03004066
:1014700086040080040F0000010800000200000044
:101480000C000000F0FF1F00E0FF3F00C0FC010067
:10149000C0FD07008018090000191E00002210007E
:1014A00000C4000000180E0000E0FF0100C0FF03B0
:1014B0000000000300000009000000120000DC3FF3
:1014C0000000FC3F0000C800000090000000200069
:1014D0000000400000008001000000FEFF0300FC4F
:1014E000FF07001800000018000000100000002096
:1014F000800100408004008000090000FF1F000000
:10150000FC1F0000F87F0000F0FF0000307C0000AE
:10151000201E0000403E00008048000000710000D6
:101520000006000000FC7F0000FEFF00000C000031
:1015300000C0010000C00200008004000000FF0F96
:101540000000FC3F00000040000000870000001A7F
:101550000100003C02000040040080FF0F0000FF7B
:101560000F00000003000080030000307F000070C7
:10157000FF010020460200408607008008040000AA
:101580003100000086030000FC7F0000FEFF000029
:101590000C000000C0010000C00200008004000038
:1015A00000FF1F0000FC3F000000070000000300D8
:1015B0000060030000200300004006000080FF0FD1
:1015C0000000E61F00001C0000002C000000480086
:1015D0000000F0FF0100C0FF03000080030000C016
:1015E000010080E3000000050700000A380000FC4D
:1015F000FF0000F8FF01003C00000080F9030080BC
:10160000FB0F000091100000622100000441000067
:101610000880000030000100C0FF030080FF0300CD
:1016200000F3070000B51F00002A220000944700C5
:10163000002880000050000100E0000200C0FF0709
:1016400000C0FF070080000000000C0000003C000C
:101650000000C8000000F0010000C002000000020D
:10166000040000060C0000FF1F0000FC1F000030FB
:10167000180000904800002091000080C301000085
:10168000040200000C0400001E0F00000C0E00609D
:1016900000000020010000400200000007000000E0
:1016A00008000000180000001800000018000000EA
:1016B000100000000030000000300000002000009A
:1016C00000400000008000000000FF1F0000FC3F01
:1016D00000001800000018000000100000002000AA
:1016E00000004000000000FF0F0000FE1F0030005F
:1016F000000050000000A000000020010000400297
:10170000000080040000000A000000140000003007
:1017100000000060000000C0000000400100004028
:101720000200008004000000090000001200000018
:101730002800000060000000F0000000E001000050
:101740000003000000050000000900000012000076
:10175000002400000050000000E000000020010014
:10176000004002000000030000000C000000140014
:10177000000024000000480000009000000040012C
:101780000000000300008007000000080000001EA9
:1017900000000000008003000000050000003E0083
:1017A00000007C0000003800000050000000E00352
:1017B000000000040000800F000000070000000A85
:1017C0000000001C00E0FF0300C0FF0700802008AD
:1017D00000C0FF7F0080FFFF00000441000018C52B
:1017E0000000E0FB0000E0FF0100C0FF0700000078
:1017F0000900000012000000180000FC3F0000F883
:10180000FF00000020010000C00300000000008075
:10181000FF070000FF1F0000002400000048000038
:101820000060003000000070000000A000000060B8
:10183000FFFF07C0FCFF1F800100240006004800D6
:1018400008006000F00000005002000020030000CB
:1018500040F0FF0780FBFF1F001E0024000000482F
:10186000000000600078000000C00100008003005C
:1018700000C003000080F8FF0F00FFFF3F001E00C4
:101880004800000090000000C00000C000000040C0
:1018900000000080000000000100000002000000C5
:1018A000F8FF0F00F0FF1F00E001000060020000E1
:1018B000C007000080010000000E800000068001CB
:1018C00000FCFF0100F0FF01E0000000200100002B
:1018D0002001000040040000800C00000015000002
:1018E000001B000000020000000F0000001E0000AE
:1018F000002C00000068000000B0000000000100A3
:1019000000000200000006000000070000000600C2
:10191000000030000000B0000000A00100008001C5
:10192000000080000000000B0000000C0000001010
:10193000000000180000001000000020000000F06F
:10194000010000E0030000000100000002000000B0
:101950003800000050000000E000000040000000DF
:101960000001000080010000000100000000003CB8
:10197000000000FE0100000C0300000C0C00000839
:101980001000001020000020400000408000008077
:101990008101000086010000F8010000E003000062
:1019A000E00C000040200000405C000080A8000027
:1019B00000D1010000E201000084090000101800BD
:1019C00000E01F0000001F0000020000000C0000EB
:1019D00000F8FF0000E0FF03000000040000F00931
:1019E0000000F017000020290000405E00008091F8
:1019F00000000001010000FE030000FC030000F0F5
:101A0000070000301C000020240000404800008037
:101A1000770000000E00000002000000040000003B
:101A2000F80F0000E01F0000800F0000803F000062
:101A300080C10000000101000072020000B4050036
:101A40000068070000900B0000201000006060009C
:101A500000748000007000000000F8000000F8032F
:101A60000000180C0000101000002C27000068591E
:101A70000000D8720000E0B900000002010000067A
:101A8000060040060800000700000007000000FCF8
:101A9000010000C07B00000092000000A2030000D3
:101AA000C4050000080800001010000020300000ED
:101AB00080200000007F0000007C000000FC01008E
:101AC000000C0700000809000010120000E01D00D3
:101AD0000080010000800000000081010000FE0382
:101AE0000000F8030000FF070000FF0300000300F0
:101AF0000000001F0000007F00000083010000C202
:101B00000300008400000008030000900F00002084
:101B100035000040520000C0FC0000C8F00000E0AA
:101B200000000000F0010000F8070000701800003D
:101B3000602C00004054000080C9000000F3000049
:101B4000009C00000078000000B8030000300C008A
:101B500000C030000080410000F8010011241FBEC9
:101B6000CFE5D8E0DEBFCDBF10E0A0E6B0E0E6E410
:101B7000FFE202C005900D92A836B107D9F710E038
:101B8000A8E6B0E001C01D92A83DB107E1F70E94B0
:101B900042170C94A1170C9400001F920F920FB6DD
:101BA0000F9211242F938F939F93EF93FF939BB1E9
:101BB0002CB1E091CA00EF5FEF738091CB00E81782
:101BC00011F482E008C0892F8871E093CA00F0E028
:101BD000E857FF4F20838093CC00FF91EF919F91B6
:101BE0008F912F910F900FBE0F901F9018951F92FD
:101BF0000F920FB60F9211248F939F93EF93FF9341
:101C00009091C8008091C900981761F0E091C900D7
:101C1000EF5FEF70E093C900F0E0E858FF4F80817C
:101C20008CB907C0559881E090E09093690080934B
:101C30006800FF91EF919F918F910F900FBE0F90D1
:101C40001F9018959C011092C8001092C900109224
:101C5000CA001092CB0097FF03C082E08BB93F7798
:101C600030BD29B988E98AB986E880BD0895909188
:101C7000CA008091CB00981719F420E031E012C01F
:101C8000E091CB00EF5FEF73E093CB00F0E0E8571B
:101C9000FF4F30812091CC00922F80E0AC01430FA8
:101CA000511D9A01C9010895282F9091C8009F5F86
:101CB0009F708091C9009817E1F3E92FF0E0E85890
:101CC000FF4F20839093C800109269001092680023
:101CD000559A0895CF93DF93EC0103C021960E949B
:101CE000540E88818823D1F7DF91CF9108950AC0DF
:101CF00020E030E000002F5F3F4F46E026363407FB
:101D0000C9F701970097A1F70895D898D99815BAFF
:101D100088BBDA98DA9AD89A0895D898D99A95BB58
:101D200088BBDA98DA9AD89A08950F931F938B019B
:101D30000E94850EC8010E948D0E1F910F9108957B
:101D4000D898D99815BA88BBDA98DA9A17BA14BA1B
:101D5000DB98000023B3922F80E026B3DB9AD89A59
:101D60004FEF47BB44BB30E0282B392BC901089506
:101D7000D89AD99ADA9ADB9A9698D09AD19AD29A26
:101D8000D39A8E9A8FEF87BB84BB8AE090E00E9443
:101D9000770E969A82E390E00E94770E08950E9453
:101DA000B80E80E00E94850E81E090E00E948D0ECA
:101DB0008FE090E00E94770E83E00E94850E8CEA0F
:101DC0009AEA0E948D0E8CE00E94850E82E090E0DF
:101DD0000E948D0E8DE00E94850E8AE090E00E94A8
:101DE0008D0E8EE00E94850E80E09CE20E948D0E9A
:101DF0008EE10E94850E88EB90E00E948D0E8FE0B0
:101E000090E00E94770E81E00E94850E8FE39BE2B6
:101E10000E948D0E82E00E94850E80E096E00E9476
:101E20008D0E80E10E94850E80E090E00E948D0E74
:101E300081E10E94850E80E390E60E948D0E84E190
:101E400090E00E94770E85E00E94850E80E090E091
:101E50000E948D0E86E00E94850E80E090E00E9438
:101E60008D0E86E10E94850E8CE19FEE0E948D0E04
:101E700087E10E94850E83E090E00E948D0E87E04E
:101E80000E94850E83E392E00E948D0E8BE00E94FB
:101E9000850E82E193E50E948D0E8FE00E94850EF3
:101EA00080E090E00E948D0E84E190E00E94770E29
:101EB00081E40E94850E80E090E00E948D0E82E415
:101EC0000E94850E80E090E00E948D0E88E40E94C2
:101ED000850E80E090E00E948D0E89E40E94850EC0
:101EE0008FE391E00E948D0E84E40E94850E80E0D5
:101EF0009FEE0E948D0E85E40E94850E80E090E0AA
:101F00000E948D0E86E40E94850E8FE391E00E9470
:101F10008D0E84E190E00E94770E80E30E94850E92
:101F200087E097E00E948D0E81E30E94850E84E099
:101F300097E00E948D0E82E30E94850E84E092E07D
:101F40000E948D0E83E30E94850E81E092E00E9444
:101F50008D0E84E30E94850E83E092E00E948D0E38
:101F600085E30E94850E84E092E00E948D0E86E358
:101F70000E94850E84E092E00E948D0E87E30E940D
:101F8000850E82E095E00E948D0E8AE30E94850E08
:101F900082E093E00E948D0E8BE30E94850E80E02C
:101FA00095E00E948D0E84E190E00E94770E0895E6
:101FB0000F931F938C018EE40E94950E8FE4B8015D
:101FC0000E94950E82E20E94850E1F910F91089546
:101FD000AF92BF92CF92DF92EF92FF921F937C015C
:101FE0006B015A01122F84E40E94850E912F80E02C
:101FF0008C299D290E948D0E85E40E94850EC701C3
:102000000E948D0E86E40E94850EC5010E948D0EF1
:10201000C701B6010E94D80F1F91FF90EF90DF908B
:10202000CF90BF90AF9008950E94D80F809160002C
:10203000909161000E948D0E08958F929F92AF92B1
:10204000BF92CF92DF92EF92FF920F931F93CF93A5
:10205000DF934C01F62EE72E5A0169010E94E80F2A
:102060002F2D3E2DC901EC010AC0C8010E948D0E22
:102070000894E11CF11CAE14BF04B8F72196CC16ED
:10208000DD0610F07401F7CF80E090E060E070E0D2
:102090004FE351E02FEE30E00E94E80FDF91CF9147
:1020A0001F910F91FF90EF90DF90CF90BF90AF9076
:1020B0009F908F9008950F931F938C0180E090E084
:1020C00060E070E04FE351E02FEE30E00E941D1021
:1020D0001F910F9108954F925F926F927F928F920E
:1020E0009F92AF92BF92CF92DF92EF92FF920F93A7
:1020F0001F93CF93DF932A013901802EAC01415009
:102100005040440D551D9B0121503040260D371D78
:102110000E94E80F9924C0E0D0E0AA24BB2432C07A
:10212000992019F597012F5F3F4FF701949179019D
:102130000894E11CF11CF9012491F1E08F1611F0D3
:10214000822F0CC0822F806230E2932E922225FFD4
:1021500005C0F7010894E11CF11C9490C82FD0E051
:10216000192F00E0C02BD12B01C09A94CE010E9400
:102170008D0E0894C11CD11CC414D50488F2089497
:10218000A11CB11CA614B70418F4CC24DD24F4CF90
:1021900080E090E060E070E04FE351E02FEE30E04F
:1021A0000E94E80FDF91CF911F910F91FF90EF9068
:1021B000DF90CF90BF90AF909F908F907F906F9067
:1021C0005F904F900895EF92FF920F931F93CF93DC
:1021D000DF939A014F5F5F4FF90104919A012F5FDE
:1021E0003F4FFA01A4915A2F40E0E9012196F901ED
:1021F000A4917E010894E11CF11CFE011491312F81
:1022000020E0F7011491B0E04A2B5B2BE12FF0E0C6
:102210002E2B3F2B0894E11CF11C0E946B10DF91C8
:10222000CF911F910F91FF90EF900895FC01909333
:10223000D7008093D600329684918093D200319655
:10224000E491E093D40008952F923F924F925F92D1
:102250006F927F928F929F92AF92BF92CF92DF92B6
:10226000EF92FF920F931F93DF93CF93CDB7DEB71B
:1022700027970FB6F894DEBF0FBECDBF482F6091F1
:10228000D6007091D700FB01059114916B5F7F4FD1
:10229000FB01F4906F5F7F4FFB01E490665070404C
:1022A000C82EDD24AF2DB0E0F6013796EA1BFB0BFC
:1022B000E60FF71F549120916000309161003D833B
:1022C0002C838A30A9F4809165002091D400829FEC
:1022D000C00111242091730030917400280F391F20
:1022E000309374002093730010927200109271006A
:1022F0004F1508F438C1E41608F435C1012B09F470
:1023000032C1552309F42FC180916F00882319F041
:102310004090D20019C0842F845D873028F083510B
:10232000863010F0413D79F420916400529F900175
:1023300011248091710090917200821B930B9093F5
:10234000720080937100452E40534A3028F4FB01FF
:10235000EA1BFB0BF7964490442D50E05B834A83C5
:102360008091640090E0FC014E9FC0014F9F900D52
:102370005E9F900D11242091710030917200820FA8
:10238000931F80549140A8F0809165002091D40063
:10239000829FC00111242091730030917400280F96
:1023A000391F3093740020937300109272001092C2
:1023B000710040E050E090E096012A1B3B0B07C003
:1023C0003796E60FF71F8491480F511D9F5FE92F45
:1023D000F0E0E217F307A4F38091D40090E0489F67
:1023E0009001499F300D589F300D11248E2D90E0A3
:1023F00007968A1B9B0B73E0880F991F7A95E1F76C
:10240000280F391F67E0762E7222882499245524DC
:1024100053E0369527955A95E1F7A9014F5F5F4F35
:102420005F834E8376C057E0571520F40894811CD3
:10243000911C77248E819F81880D991DE091D60093
:10244000F091D700E80FF91FE491E98380916400CF
:10245000589E500111248091710090917200A80E35
:10246000B91E80917300909174000FEE10E0081B6C
:10247000190B80916500689EC0011124081B190B7F
:1024800041E0242E312C072C02C0220C331C0A946C
:10249000E2F7CC242DC0898190E082219321892B01
:1024A00029F0809162009091630008C080917000D3
:1024B0008823C1F080916D0090916E00909361002F
:1024C0008093600080916C006D2D70E0882329F06E
:1024D000CB01800F911FB70103C0600F711FC701AF
:1024E0000E941410D39480916500D816A0F2C39472
:1024F00080916400C81628F4DD247501EC0CF11CF1
:10250000F2CF739463948091D400681608F48BCF53
:102510005394541410F46624F6CF6C817D8170932B
:102520006100609360004091640050916600842FC8
:1025300090E0EA81FB81E89F9001E99F300DF89FD0
:10254000300D1124250F311D809171009091720082
:10255000820F931F9093720080937100449E802D90
:102560001124850F01C080E027960FB6F894DEBFD6
:102570000FBECDBFCF91DF911F910F91FF90EF90D4
:10258000DF90CF90BF90AF909F908F907F906F9093
:102590005F904F903F902F9008958F929F92AF92AF
:1025A000BF92CF92DF92EF92FF920F931F93CF9340
:1025B000DF93DC014091D6005091D7004B5F5F4F15
:1025C000FA01A4904F5F5F4FFA018490465050404B
:1025D00090906F00B090D20080916400C82FD0E03E
:1025E0008B2D90E0C89F6001C99FD00CD89FD00C64
:1025F000112480916600E82EFF2460E070E00A2D2F
:1026000010E021C0992021F09B012C0D3D1D17C029
:10261000EA1550F08E1640F0F0E03796E01BF10B13
:10262000E40FF51F849101C08B2D90E08C9F9001E9
:102630008D9F300D9C9F300D1124260F371FB9013F
:102640006E0D7F1D1196EC91EE23E1F6CB01DF912B
:10265000CF911F910F91FF90EF90DF90CF90BF909F
:10266000AF909F908F900895209165008091D40045
:10267000289F90011124C90108950F931F93CF93B0
:10268000DF93EC0100E010E004C00E942411080F69
:102690001F5FFE01E10FF11D80818823B1F7802FBC
:1026A00090E0DF91CF911F910F9108956F927F92EB
:1026B0008F929F92AF92BF92CF92DF92EF920F9341
:1026C0001F93CF93DF934C015B016A01E90138014D
:1026D0001E2DC3010E94CD129C01123011F1133046
:1026E00030F4EE2051F0113009F047C011C0133022
:1026F00049F1143009F041C02EC0CA19DB0980919C
:10270000D400C81BD109D695C795AC0EBD1E35C0E7
:10271000CA19DB098091D400C81BD109D695C79589
:1027200022C08C159D0548F5CA19DB098091D4009B
:10273000C81BD109D695C795AC0EBD1E4601821A9D
:10274000930A1BC0C60188199909821B930B9695A1
:102750008795880E991E8091D400FEEFAF2EFFEF73
:10276000BF2EA81AB108AC0EBD1EC818D908C21ACF
:10277000D30AD694C7948C0C9D1C909272008092C0
:102780007100B0927400A0927300C3010E943D13C7
:10279000DF91CF911F910F91EF90DF90CF90BF907D
:1027A000AF909F908F907F906F9008950F931F939D
:1027B000FB01B90110936100009360002FEE30E03F
:1027C000D901A61BB70BBD012E1B3F0B0E941D108C
:1027D0001F910F9108958F929F92AF92BF92CF92C7
:1027E000DF92EF92FF920F931F936C014A018FEEDD
:1027F000E82EF12C5701A61AB70AE21AF30A109331
:10280000610000936000C601B70197010E941D108E
:102810000091600010916100C601B501A40195010D
:102820000E941D100091600010916100C601B70167
:10283000A60195010E941D10009160001091610099
:10284000C401B701A40195010E941D101F910F91B1
:10285000FF90EF90DF90CF90BF90AF909F908F90C0
:1028600008952F923F924F925F926F927F928F9234
:102870009F92AF92BF92CF92DF92EF92FF920F930F
:102880001F93DF93CF93CDB7DEB72A970FB6F89497
:10289000DEBF0FBECDBF3C018FEE90E05C01A61AFB
:1028A000B70A821B930B10936100009360006A01CA
:1028B000C618D708D7FE04C0D094C194D108D394C9
:1028C0009C012A193B093A87298737FF05C03095B3
:1028D00021953F4F3A87298778866F82BE82AD82E5
:1028E0004615570528F061E070E07C836B8304C0D7
:1028F000EFEFFFEFFC83EB838A159B0528F021E0C7
:1029000030E03A83298304C06FEF7FEF7A836983D5
:1029100089859A859C01442737FD4095542FC6012F
:10292000AA2797FDA095BA2FE985FA85CE16DF066E
:102930000CF442C079018A01EE0CFF1C001F111F2C
:10294000E81AF90A0A0B1B0BCF01880F991F1C010B
:10295000442437FC4094542CEC19FD09EE0FFF1F62
:102960004F01AA2497FCA094BA2C1A861986C30199
:102970006D817E810E94141017FF05C0E20CF31CCC
:10298000041D151D0CC0E80CF91C0A1D1B1D2D8112
:102990003E8169817A81260F371F3E832D83898589
:1029A0009A8501969A878987EB81FC816E0E7F1E3E
:1029B000C816D906E4F643C07C018D01EE0CFF1C5D
:1029C000001F111FE21AF30A040B150BC601880F32
:1029D000991F1C01442437FC4094542C29853A85C6
:1029E000C21AD30ACC0CDD1C3601882477FC8094F3
:1029F000982CCC24DD248F819885B5010E94141079
:102A000017FF05C0E20CF31C041D151D0CC0E60CDD
:102A1000F71C081D191D6F8178858B819C81680FBB
:102A2000791F78876F830894C11CD11CE981FA81D2
:102A3000AE0EBF1E29853A852C153D05E4F62A9673
:102A40000FB6F894DEBF0FBECDBFCF91DF911F91BF
:102A50000F91FF90EF90DF90CF90BF90AF909F903D
:102A60008F907F906F905F904F903F902F90089540
:102A70002F923F924F925F926F927F928F929F928E
:102A8000AF92BF92CF92DF92EF92FF920F931F937C
:102A9000DF93CF93CDB7DEB72A970FB6F894DEBF9A
:102AA0000FBECDBF2C0158874F8318018FEE90E0E9
:102AB000AC01461B570B5C834B83FC01E21BF30B01
:102AC000FA83E983F0926100E0926000CC2009F47F
:102AD000C4C05801A1E08A2E912C801A910ABF012E
:102AE0006F5F7F4F601B710B9A0121503040200FA8
:102AF000311FC2014F81588587010E941D101A861F
:102B0000198621E030E03E832D8334C0A614B7043B
:102B100029F1E980FA8049855A85E41AF50AA2016B
:102B20004A195B09CB80DC8089859A85C80ED91E3D
:102B30000091600010916100CA01B70196010E94E6
:102B40001D104F8158854A0D5B1D0091600010914A
:102B50006100CA01B70196010E941D10E985FA853E
:102B60003196FA87E9872D813E812F5F3F4F3E8363
:102B70002D83530149855A854A155B0521F1E9806A
:102B8000FA80EA18FB08CB80DC80CA0CDB1C0091C1
:102B9000600010916100C201841B950BB701A20176
:102BA00096010E941D104F81588589859A85480F8E
:102BB000591F00916000109161008F819885B701C5
:102BC00096010E941D1097FE0CC0E3E0F0E08E0E0F
:102BD0009F1E89859A85880F991F880E991E350139
:102BE00010C025E030E0820E931E89859A858A19EF
:102BF0009B09880F991F880E991E3501089461085A
:102C000071084D815E81641675060CF07FCFA614A5
:102C1000B70419F1E980FA8089859A85E81AF90ADA
:102C2000A2014A195B09CB80DC80C80ED91E009135
:102C3000600010916100CA01B70196010E941D1049
:102C40004F8158854A0D5B1D009160001091610015
:102C5000CA01B70196010E941D105101E1E0F0E0A8
:102C6000E219F309FA87E9876624772451E0852E73
:102C7000912C2BC08114910411F18A149B04F9F05A
:102C800082010A191B09C980DA80C818D908C8014D
:102C9000B6010E941410EB80FC80E80CF91CC801FE
:102CA000B7010E9414100F8118850A0D1B1DC80161
:102CB000B6010E941410C801B7010E9414100894B4
:102CC000611C711C0894811C911C6201C618D708F4
:102CD00009811A810A191B09C601B8010E94141042
:102CE000EF80F884E60CF71CC701B8010E941410AD
:102CF0000B811C810A0D1B1DC601B8010E94141016
:102D0000C701B8010E94141029853A8537FF0AC00F
:102D10002D5F3F4FC301880F991F280F391F3A8736
:102D2000298710C049855A854B5F5F4FC3018A19B7
:102D30009B09880F991F480F591F5A874987089484
:102D4000A108B108A814B9040CF094CF29813A81E4
:102D5000221933090091600010916100C201B9018C
:102D60004F8158850E941D102B813C81220D331DFF
:102D70000091600010916100C201B9014F81588536
:102D80000E941D10A2014219530900916000109188
:102D90006100CA0169817A812B813C810E941D10EA
:102DA0004F815885420D531D0091600010916100C4
:102DB000CA0169817A812B813C810E941D102A966B
:102DC0000FB6F894DEBF0FBECDBFCF91DF911F913C
:102DD0000F91FF90EF90DF90CF90BF90AF909F90BA
:102DE0008F907F906F905F904F903F902F900895BD
:102DF000AF92BF92CF92DF92EF92FF920F931F9309
:102E00006C015B01CA0179010E94161110936300E5
:102E100000936200D0927200C0927100B092740070
:102E2000A0927300C7010E943D131F910F91FF9064
:102E3000EF90DF90CF90BF90AF900895BF92CF9268
:102E4000DF92EF92FF920F931F937C016B01CA01F7
:102E5000B22E0E9416111093630000936200F0924C
:102E60007200E0927100D0927400C09273008B2DBA
:102E70000E9424111F910F91FF90EF90DF90CF904F
:102E8000BF9008950F931F9383E090E00E94220E5D
:102E90000E94CF0E8D9A959A80E090E00E945B1080
:102EA0008AE090E06AE070E044E550E02AE40FEF49
:102EB0001FEF0E941E1784E190E06AE070E044E595
:102EC00050E021E40E941E178EE190E06AE070E07D
:102ED00044E550E029E50E941E1788E290E06AE090
:102EE00070E044E550E024E40E941E1782E390E085
:102EF0006AE070E044E550E025E40E941E178CE390
:102F000090E06AE070E044E550E025E40E941E177E
:102F100086E490E06AE070E044E550E020E50E943D
:102F20001E178AE090E062E370E044EF51E020E297
:102F300033E00E94311420E030E9C9010197F1F734
:062F4000FCCFF894FFCF66
:082F4600FFFFFFFF0101010084
:00000001FF
